:100000000C9463000C948B000C948B000C948B006C
:100010000C948B000C948B000C948B000C948B0034
:100020000C948B000C948B000C948B000C94170692
:100030000C948B000C948B000C948B000C948B0014
:100040000C9413010C948B000C94A7030C94EA03FA
:100050000C948B000C948B000C948B000C948B00F4
:100060000C948B000C948B00000000070002010030
:100070000003040600000000000000000102040864
:100080001020408001020408102001020408102002
:10009000040404040404040402020202020203032E
:1000A00003030303000000002300260029000000D2
:1000B0000000250028002B0000000000240027007D
:1000C0002A000F01A60411241FBECFEFD8E0DEBF27
:1000D000CDBF11E0A0E0B1E0E8EAF1E102C0059097
:1000E0000D92AA31B107D9F711E0AAE1B1E001C040
:1000F0001D92A83FB107E1F710E0C6ECD0E004C0C4
:100100002297FE010E94CE08C23CD107C9F70E9487
:10011000FC040C9452080C94000061E08EE00E94F4
:1001200015026EE070E08CE191E00E946D076AE5D7
:1001300070E08CE191E00C94A607853B910528F4D2
:10014000BC018CE191E00C94A60708956AE570E08B
:100150008CE191E00C94A60760E08DE00E9415020E
:1001600061E08CE00E94150210921B0110921A01AE
:10017000089560E08CE00E944E0282E090E00E94D0
:10018000A60161E08CE00E944E028AE090E00E94AD
:10019000A60160E08CE00E944E0220E432E44FE0D1
:1001A00050E061E08DE00E9484022CE430E040E009
:1001B00050E00E949E08CA01B90108950E948D0076
:1001C0000E94AC0040E855E260E070E088E291E017
:1001D0000C942504CF93DF9364EF71E080E090E00E
:1001E0000E948001C0E0D0E0CE010E949D000E94EC
:1001F000B900AB01BC012AE030E088E291E00E9446
:10020000050669E170E080E090E00E94800122969E
:10021000C43BD10549F7DF91CF910C94A6008CE146
:1002200091E00C94D3061F920F920FB60F921124F7
:100230002F933F938F939F93AF93BF938091200110
:1002400090912101A0912201B091230130911F01D1
:1002500023E0230F2D3720F40196A11DB11D05C009
:1002600026E8230F0296A11DB11D20931F01809344
:10027000200190932101A0932201B093230180914A
:10028000240190912501A0912601B09127010196AA
:10029000A11DB11D8093240190932501A0932601F7
:1002A000B0932701BF91AF919F918F913F912F9173
:1002B0000F900FBE0F901F9018953FB7F894809144
:1002C000240190912501A0912601B091270126B526
:1002D000A89B05C02F3F19F00196A11DB11D3FBF7E
:1002E0006627782F892F9A2F620F711D811D911D0E
:1002F00042E0660F771F881F991F4A95D1F708952E
:10030000CF92DF92EF92FF92CF93DF936B017C014C
:100310000E945D01EB01C114D104E104F10479F004
:100320000E945D016C1B7D0B683E7340A0F381E071
:10033000C81AD108E108F108C851DC4FECCFDF91B1
:10034000CF91FF90EF90DF90CF90089501970097A5
:1003500039F0880F991F880F991F02970197F1F7BD
:100360000895789484B5826084BD84B5816084BD2D
:1003700085B5826085BD85B5816085BDEEE6F0E01E
:10038000808181608083E1E8F0E01082808182607A
:100390008083808181608083E0E8F0E080818160FB
:1003A0008083E1EBF0E0808184608083E0EBF0E02B
:1003B000808181608083EAE7F0E0808184608083CF
:1003C0008081826080838081816080838081806879
:1003D00080831092C1000895833081F028F4813029
:1003E00099F08230A1F008958630A9F08730B9F0F5
:1003F0008430D1F4809180008F7D03C08091800093
:100400008F7780938000089584B58F7702C084B57C
:100410008F7D84BD08958091B0008F7703C0809157
:10042000B0008F7D8093B0000895CF93DF9390E06C
:10043000FC01E458FF4F2491FC01E057FF4F8491E9
:10044000882349F190E0880F991FFC01E854FF4F81
:10045000A591B49182559F4FFC01C591D4919FB74E
:10046000611108C0F8948C91209582238C93888127
:1004700082230AC0623051F4F8948C91322F309567
:1004800083238C938881822B888304C0F8948C9179
:10049000822B8C939FBFDF91CF9108950F931F9371
:1004A000CF93DF931F92CDB7DEB7282F30E0F9014D
:1004B000E859FF4F8491F901E458FF4F1491F90175
:1004C000E057FF4F04910023C9F0882321F069838E
:1004D0000E94EC016981E02FF0E0EE0FFF1FE25572
:1004E000FF4FA591B4919FB7F8948C91611103C00F
:1004F0001095812301C0812B8C939FBF0F90DF91BA
:10050000CF911F910F9108958F929F92AF92BF92BA
:10051000CF92DF92EF92FF920F931F93CF93DF93CF
:1005200090E0FC01E458FF4F0491FC01E057FF4FBD
:100530007491611102C010E001C0102FDA01C901ED
:10054000BF70672F70E0660F771F6C557F4F812C4F
:10055000912C5401FB01C591D491E881E023E11372
:1005600010C0750164012FEFC21AD20AE20AF20A22
:1005700088169906AA06BB0609F441C04601570130
:10058000ECCFFB01C591D491E881E023E11779F02C
:10059000750164012FEFC21AD20AE20AF20A881624
:1005A0009906AA06BB0659F146015701EDCF8819F5
:1005B0009909AA09BB0920E030E0A901FB01C59116
:1005C000D4916881602361130AC0281739074A074C
:1005D0005B07A9F02F5F3F4F4F4F5F4FF2CFA5E171
:1005E000B0E00E945508605F7F4F8F4F9F4F24E01F
:1005F00096958795779567952A95D1F703C060E022
:1006000070E0CB01DF91CF911F910F91FF90EF90A0
:10061000DF90CF90BF90AF909F908F900895FC0196
:1006200024853585F901E05CFF4F80819181F901D6
:10063000EE5BFF4F20813181821B930B8F739927D3
:100640000895FC0184859585FC01E05CFF4F4081A5
:100650005181FC01EE5BFF4F20813181421753072E
:1006600041F00190F081E02DE80FF91F808190E0CA
:1006700008958FEF9FEF0895FC0184859585FC0117
:10068000E05CFF4F40815181FC01EE5BFF4F208118
:1006900031814217530779F0A081B181A80FB91FAA
:1006A0008C91208131812F5F3F4F2F73332731830E
:1006B000208390E008958FEF9FEF0895FC0181A1C2
:1006C000882329F0A489B5898C9186FFFBCF11A2DC
:1006D0000895CF93DF93FC0126853785D901A05C6F
:1006E000BF4F8D919C91119701968F739927E901C6
:1006F000CE5BDF4F4881598184179507D9F30D9060
:10070000BC91A02DA20FB31F6C93A685B785A05CEA
:10071000BF4F11969C938E93A689B7892C9181E047
:1007200090E0078C02C0880F991F0A94E2F7282BEB
:100730002C9381E081A30488F589E02D8081806479
:10074000808381E090E0DF91CF91089508951F921A
:100750000F920FB60F9211242F933F934F938F93C5
:100760009F93EF93FF938091C00082FD1CC0409146
:10077000C6008091CE019091CF0101968F73992789
:100780002091D0013091D1018217930771F0E0914F
:10079000CE01F091CF01E257FE4F40839093CF01FD
:1007A0008093CE0102C08091C600FF91EF919F918E
:1007B0008F914F913F912F910F900FBE0F901F90EF
:1007C000189588E291E00E940F03892B11F00C9498
:1007D000A60308951F920F920FB60F9211242F9324
:1007E0003F938F939F93EF93FF9320918A013091D2
:1007F0008B0180918C0190918D012817390731F47C
:100800008091C1008F7D8093C10014C0E0918C0164
:10081000F0918D01E65BFE4F208180918C019091DB
:100820008D0101968F73992790938D0180938C0190
:100830002093C600FF91EF919F918F913F912F914F
:100840000F900FBE0F901F901895CF92DF92EF92EE
:10085000FF92CF93DF93EC016A017B01411581EE9A
:10086000580761057105F9F0EC89FD8981E090E098
:1008700008A002C0880F991F0A94E2F7808360E005
:1008800079E08DE390E0A70196010E947C08215059
:1008900031094109510956954795379527952115F5
:1008A00080E1380798F0EC89FD89108260E874E8EF
:1008B0008EE190E0A70196010E947C082150310949
:1008C000410951095695479537952795E889F98942
:1008D0003083EA89FB89208319A2EE89FF89408150
:1008E00081E090E09C010C8C02C0220F331F0A941F
:1008F000E2F7422B4083EE89FF8940819C010D8CF9
:1009000002C0220F331F0A94E2F7422B4083EE8984
:10091000FF8940819C010E8C02C0220F331F0A9474
:10092000E2F7422B4083EE89FF8920810F8C02C0C1
:10093000880F991F0A94E2F7809582238083DF91C4
:10094000CF91FF90EF90DF90CF90089510922B0100
:1009500010922A0188EE93E0A0E0B0E080932C0191
:1009600090932D01A0932E01B0932F018EE091E082
:1009700090932901809328018EE891E090933501AE
:10098000809334018AE491E090933701809336019B
:1009900085EC90E0909339018093380184EC90E0ED
:1009A00090933B0180933A0180EC90E090933D015D
:1009B00080933C0181EC90E090933F0180933E0155
:1009C00082EC90E0909341018093400186EC90E0AE
:1009D000909343018093420184E08093440183E03B
:1009E0008093450187E08093460185E0809347012D
:1009F00081E08093480108950E94B1010E94DE00C9
:100A0000C1EED3E00E94EA002097E1F30E94E103E7
:100A1000F9CFCF92DF92EF92FF920F931F93CF9374
:100A2000DF936C017A01EB01E60EF71E00E010E0A7
:100A3000CE15DF0561F06991D601ED91FC91019031
:100A4000F081E02DC6010995080F191FF1CFC801EB
:100A5000DF91CF911F910F91FF90EF90DF90CF909A
:100A600008956115710581F0DB010D900020E9F713
:100A7000AD0141505109461B570BDC01ED91FC9132
:100A80000280F381E02D099480E090E00895DC017C
:100A9000ED91FC910190F081E02D09940F931F934B
:100AA000CF93DF93EC016DE00E9447058C016AE073
:100AB000CE010E944705800F911FDF91CF911F91BA
:100AC0000F9108958F929F92AF92BF92CF92DF9233
:100AD000EF92FF920F931F93CF93DF93CDB7DEB7C3
:100AE000A1970FB6F894DEBF0FBECDBF7C01C42E18
:100AF000E52FCB01D22E19A221E02D1510F02AE00E
:100B0000D22E8E010F5D1F4F8D2C912CA12CB12C5C
:100B10006C2D7E2FA50194010E947C088C2DD29E05
:100B200080191124015011098A3014F4805D01C02C
:100B3000895CF8018083211531054105510521F0BB
:100B4000C22EE32FCA01E4CFB801C7010E943105CC
:100B5000A1960FB6F894DEBF0FBECDBFDF91CF9147
:100B60001F910F91FF90EF90DF90CF90BF90AF90CB
:100B70009F908F900895CF92DF92EF92FF920F9304
:100B80001F93CF93DF93EC016A017B01211531059F
:100B900079F4E881F9810190F081E02D642FDF91F3
:100BA000CF911F910F91FF90EF90DF90CF9009941C
:100BB0002A303105E9F477FF1AC06DE20E9447053B
:100BC0008C0144275527BA014C195D096E097F092C
:100BD0002AE0CE010E946205800F911FDF91CF9124
:100BE0001F910F91FF90EF90DF90CF9008952AE032
:100BF000B701A601CE01DF91CF911F910F91FF9018
:100C0000EF90DF90CF900C9462050F931F93CF93DA
:100C1000DF93EC010E94BB058C01CE010E944E05C2
:100C2000800F911FDF91CF911F910F9108951F9217
:100C30000F920FB60F9211242F933F934F935F9310
:100C40006F937F938F939F93AF93BF93EF93FF9394
:100C50008091D30187FF05C0109285001092840017
:100C60001AC02091D301332727FD30958091D201FE
:100C700090E0281739077CF48091D301992787FDEC
:100C80009095FC01EE0FFF1FE80FF91FEC52FE4F8D
:100C9000808186FD15C08091D3018F5F8093D30141
:100CA0002091D301332727FD30958091D20190E028
:100CB00028173907BCF48091D3018C305CF112C045
:100CC0008091D301992787FD9095FC01EE0FFF1FBE
:100CD000E80FF91FEC52FE4F808160E08F730E9495
:100CE0004E02D9CF80918400909185000496803483
:100CF0009C4918F480E49CE905C08091840090919F
:100D00008500049690938900809388008FEF8093EC
:100D1000D30138C080918400909185002091D30147
:100D2000332727FD3095F901EE0FFF1FE20FF31F68
:100D3000EC52FE4F21813281820F931F90938900E4
:100D4000809388008091D301992787FD9095FC01BD
:100D5000EE0FFF1FE80FF91FEC52FE4F808186FF58
:100D600011C08091D301992787FD9095FC01EE0F6A
:100D7000FF1FE80FF91FEC52FE4F808161E08F7377
:100D80000E944E02FF91EF91BF91AF919F918F9181
:100D90007F916F915F914F913F912F910F900FBE77
:100DA0000F901F9018952091D2012C30A0F431E0C3
:100DB000320F3093D201FC012083822F90E0FC019E
:100DC000EE0FFF1FE80FF91FEC52FE4F88EB9BE080
:100DD0009283818308952FEFFC0120830895DF9291
:100DE000EF92FF920F931F93CF93DF93EC01D62ED8
:100DF0007A01890188818C3008F066C061E08D2D10
:100E00000E9415028881A82FB0E0FD01EE0FFF1FA0
:100E1000EA0FFB1FEC52FE4F2D2D2F739081907C1B
:100E2000922B908360E272E06E197F0977FF02C017
:100E30006D5F7F4F7595679575956795698340E6FA
:100E400059E0401B510B57FF02C04D5F5F4F559556
:100E50004795559547954A836CE00E9470089CE041
:100E6000899FB001112420E030E0A901460F571FEF
:100E7000FA01EE0FFF1FE40FF51FEC52FE4F9081B9
:100E800096FD16C02F5F3F4F2C30310571F7811151
:100E90000FC01092800082E0809381001092850044
:100EA00010928400B19A80916F00826080936F00ED
:100EB000888190E0FC01EE0FFF1FE80FF91FEC5254
:100EC000FE4F8081806480838881DF91CF911F9164
:100ED0000F91FF90EF90DF90089520E639E040E217
:100EE00052E00C94EF06FC0180818C3070F591810A
:100EF00028E830E0291B310997FD3395220F331F75
:100F0000220F331F621773077CF0928128E532E0CD
:100F1000291B310997FD3395220F331F220F331FF1
:100F2000621773070CF49B014FB7F89490E0FC0133
:100F3000EE0FFF1FE80FF91FEC52FE4F2250310950
:100F4000220F331F328321834FBF08954F925F9248
:100F50006F927F92AF92BF92CF92DF92EF92FF9209
:100F60000F931F93CF93DF93EC01603282E07807F9
:100F70000CF040C077FD06C0653B71052CF064EBBA
:100F800070E002C060E070E0898128E830E0281B52
:100F9000310987FD3395220F331F220F331F59016B
:100FA000CC24B7FCC094DC2C882777FD8095982F43
:100FB0002A8148E552E0421B510927FD5395440F11
:100FC000551F440F551F2A01662457FC6094762C48
:100FD0007F926F925F924F9214EBE12EF12C00E022
:100FE00010E020E030E0A9010E940B080F900F9064
:100FF0000F900F90CE01DF91CF911F910F91FF9035
:10100000EF90DF90CF90BF90AF907F906F905F9008
:101010004F900C9473074F925F926F927F92AF92B2
:10102000BF92CF92DF92EF92FF920F931F93CF93D5
:10103000DF93CDB7DEB729013A01621B730B840B36
:10104000950B29893A894B895C892A193B094C09F6
:101050005D09298B3A8B4B8B5C8B9B01AC016989B9
:101060007A898B899C890E946008E418F508060932
:101070001709A80197010E949E082A0D3B1D4C1DCF
:101080005D1DCA01B901DF91CF911F910F91FF90B2
:10109000EF90DF90CF90BF90AF907F906F905F9078
:1010A0004F900895F8940C94D2080E94BD08A59F13
:1010B000900DB49F900DA49F800D911D1124089553
:1010C000DB018F939F930E945508BF91AF91A29F20
:1010D000800D911DA39F900DB29F900D1124089536
:1010E000991B79E004C0991F961708F0961B881F7A
:1010F0007A95C9F780950895A1E21A2EAA1BBB1B09
:10110000FD010DC0AA1FBB1FEE1FFF1FA217B307D3
:10111000E407F50720F0A21BB30BE40BF50B661FE9
:10112000771F881F991F1A9469F7609570958095AD
:1011300090959B01AC01BD01CF010895052E97FB51
:101140001EF400940E94B50857FD07D00E947C0849
:1011500007FC03D04EF40C94B5085095409530959B
:1011600021953F4F4F4F5F4F089590958095709513
:1011700061957F4F8F4F9F4F0895A29FB001B39FFE
:10118000C001A39F700D811D1124911DB29F700D90
:10119000811D1124911D0895EE0FFF1F0590F491FC
:0811A000E02D0994F894FFCF43
:1011A8000000F801200001000000000000006903B1
:0A11B80009050F033C0321035E0349
:00000001FF
